:100000000C9428020C9450020C9450020C94500250
:100010000C9450020C9450020C9450020C94CB0996
:100020000C9450020C9450020C9450020C94500208
:100030000C9450020C9450020C9450020C945002F8
:100040000C9405070C9450020C9492030C946C03CE
:100050000C9450020C9450020C9450020C945002D8
:100060000C949D080C94500200000000250028000C
:100070002B004128D441CF8300833041ED846403B9
:10008000128141E88385017941CB85392C00340206
:1000900041F7812041EA82000041C0812641C181AF
:1000A0001141C582353E41C781BE41B182001B412D
:1000B000F281084126810141E08F1F1A180A0F06BC
:1000C0004587320A070207050041E18F0025270511
:1000D00010093A784D05180D383A1F41B6840A8246
:1000E000270041B78107413A8155413681E8412ACD
:1000F00082000082013F412B8200008200EF41110B
:10010000FCFC4129D4FFFF00000000240027002A46
:1001100000010204081020408001020408102001A0
:10012000020408102004040404040404040202026B
:10013000020202030303030303000000080002019C
:1001400000000304070000000000000000000000A1
:10015000000000000030787830300030006C6C6CAB
:1001600000000000006C6CFE6CFE6C6C00307CC00B
:10017000780CF8300000C6CC183066C600386C38F1
:1001800076DCCC76006060C00000000000183060B3
:100190006060301800603018181830600000663C4D
:1001A000FF3C660000003030FC30300000000000F2
:1001B0000000703060000000FC0000000000000043
:1001C0000000303000060C183060C0800078CCDCB5
:1001D000FCECCC780030F030303030FC0078CC0CC7
:1001E0003860CCFC0078CC0C380CCC78001C3C6C13
:1001F000CCFE0C0C00FCC0F80C0CCC78003860C0B5
:10020000F8CCCC7800FCCC0C183060600078CCCCFA
:1002100078CCCC780078CCCC7C0C18700000003006
:100220003000303000000030300070306018306036
:10023000C0603018000000FC00FC000000603018B6
:100240000C1830600078CC0C18300030007CC6DE12
:10025000DEDEC078003078CCCCFCCCCC00FC66660E
:100260007C6666FC003C66C0C0C0663C00FC6C66F8
:1002700066666CFC00FE6268786862FE00FE62687A
:10028000786860F0003C66C0C0CE663E00CCCCCC46
:10029000FCCCCCCC0078303030303078001E0C0CE8
:1002A0000CCCCC7800E6666C786C66E600F060609A
:1002B000606266FE00C6EEFED6C6C6C600C6E6F69C
:1002C000DECEC6C600386CC6C6C66C3800FC666694
:1002D0007C6060F00078CCCCCCDC781C00FC6666DE
:1002E0007C786CE60078CCE0381CCC7800FCB4302C
:1002F0003030307800CCCCCCCCCCCCFC00CCCCCCCE
:10030000CCCC783000C6C6C6D6FEEEC600C6C66CDB
:10031000386CC6C600CCCCCC7830307800FECC9897
:100320003062C6FE007860606060607800C0603057
:10033000180C060200781818181818780010386C75
:10034000C60000000000000000000000FF30301870
:1003500000000000000000780C7CCC7600E0607C9F
:10036000666666BC00000078CCC0CC78001C0C0C23
:100370007CCCCC7600000078CCFCC07800386C6077
:10038000F06060F000000076CCCC7C0CF8E0606C93
:10039000766666E6003000703030307800180078FD
:1003A000181818D870E060666C786CE60070303011
:1003B00030303078000000ECFED6C6C6000000F8F1
:1003C000CCCCCCCC00000078CCCCCC78000000DCCD
:1003D00066667C60F0000076CCCC7C0C1E0000D8F9
:1003E0006C6C60F00000007CC0780CF80010307C71
:1003F00030303418000000CCCCCCCC76000000CCDF
:10040000CCCC7830000000C6C6D6FE6C000000C61A
:100410006C386CC6000000CCCCCC7C0CF80000FC26
:10042000983064FC001C3030E030301C0018181884
:100430000018181800E030301C3030E00076DC0086
:10044000000000000010386CC6C6C6FE0000560F43
:1004500011241FBECFEFD8E0DEBFCDBF11E0A0E07A
:10046000B1E0E2E4F0E202C005900D92AC35B107D4
:10047000D9F723E0ACE5B1E001C01D92A431B20789
:10048000E1F712E0C8E2D2E004C02197FE010E9429
:100490000510C732D107C9F70E94F30B0C941F1047
:1004A0000C940000FC01918D828D981761F0828D73
:1004B000DF01A80FB11D5D968C91928D9F5F9F7398
:1004C000928F90E008958FEF9FEF0895FC01918D3A
:1004D000828D981731F0828DE80FF11D858D90E0A7
:1004E00008958FEF9FEF0895FC01918D228D892F44
:1004F00090E0805C9F4F821B91098F73992708952C
:1005000086E292E00E94740221E0892B09F420E047
:10051000822F0895FC01848DDF01A80FB11DA35A1D
:10052000BF4F2C91848D90E001968F739927848F13
:10053000A689B7892C93A089B1898C9180648C930A
:10054000938D848D981306C00288F389E02D8081F5
:100550008F7D80830895EF92FF920F931F93CF9327
:10056000DF93EC0181E0888F9B8D8C8D981305C003
:10057000E889F989808185FD24C0F62E0B8D10E075
:100580000F5F1F4F0F731127E02E8C8DE8120CC0E8
:100590000FB607FCFACFE889F989808185FFF5CF8E
:1005A000CE010E948A02F1CF8B8DFE01E80FF11D72
:1005B000E35AFF4FF0820B8FEA89FB8980818062CA
:1005C00007C0EE89FF896083E889F98980818064AA
:1005D000808381E090E0DF91CF911F910F91FF9098
:1005E000EF900895CF93DF93EC01888D8823C9F0B5
:1005F000EA89FB89808185FD05C0A889B9898C912C
:1006000086FD0FC00FB607FCF5CF808185FFF2CFC6
:10061000A889B9898C9185FFEDCFCE010E948A020D
:10062000E7CFDF91CF91089580E090E0892B29F00A
:100630000E94800281110C940000089590E0FC015A
:10064000E75CFE4F3491FC01EF5EFE4F2491FC010C
:10065000EB5DFE4FE491EE2309F43BC0332339F107
:10066000333091F038F43130A9F0323001F584B5EF
:100670008F7D12C0373091F03830A1F03430B9F4AA
:10068000809180008F7D03C0809180008F77809360
:1006900080000DC084B58F7784BD09C08091B00003
:1006A0008F7703C08091B0008F7D8093B000F0E021
:1006B000EE0FFF1FE859FF4FA591B4918FB7F89443
:1006C000EC91611103C020952E2301C02E2B2C9399
:1006D0008FBF08950E940B101F920F920FB60F92BA
:1006E00011242F933F934F935F936F937F938F9337
:1006F0009F93AF93BF93EF93FF9386E292E00E94A4
:100700008A02FF91EF91BF91AF919F918F917F915D
:100710006F915F914F913F912F910F900FBE0F906E
:100720001F9018951F920F920FB60F9211242F93BE
:100730008F939F93EF93FF93E0913602F0913702EE
:100740008081E0913C02F0913D0282FD12C09081D7
:1007500080913F028F5F8F7320914002821751F08A
:10076000E0913F02F0E0EA5DFD4F958F80933F02FC
:1007700001C08081FF91EF919F918F912F910F90F8
:100780000FBE0F901F9018953FB7F8948091D70136
:100790009091D801A091D901B091DA0126B5A89B1A
:1007A00005C02F3F19F00196A11DB11D3FBFBA2F03
:1007B000A92F982F8827820F911DA11DB11DBC0163
:1007C000CD0142E0660F771F881F991F4A95D1F728
:1007D00008955F9A0895CF92EF92FF920F931F931F
:1007E000CF93DF93EC01262F6A3081F48EAD9FAD5D
:1007F0009BAF8AAF2CA92F778CAD9DAD38E0239F9E
:10080000800D911D11249DAF8CAF47C0862F8B7F2B
:10081000893009F442C06AAD7BAD203219F461150C
:100820007105D9F1E881F981E8ACF9AC0EA91FA9ED
:100830004CAD5DAD0088F189E02DCCA8CE010995C5
:10084000BC019BAF8AAF8DA9882339F12CA92F77E2
:10085000822F90E048EF4203900111244E815F8186
:10086000420F531F46175707C4F44EAD5FAD5BAF41
:100870004AAF43E0880F991F4A95E1F74CAD5DAD53
:10088000840F951F9DAF8CAF48855985240F351F68
:100890002817390714F41DAE1CAE81E090E0DF91FB
:1008A000CF911F910F91FF90EF90CF900895CF922D
:1008B000EF92FF920F931F93DC01ED91FC91068460
:1008C000F785E02D09951F910F91FF90EF90CF9044
:1008D00008952F923F924F925F926F927F928F92E4
:1008E0009F92AF92BF92CF92DF92EF92FF920F93BF
:1008F0001F93CF93DF9300D01F92CDB7DEB79B83BA
:100900008A83480188E0280290011124D901A35B61
:10091000BF4F5D01BC2DBF77CB2EEA81FB81868165
:100920009781F1E0FB1708F463C06B0128E0C20E69
:10093000D11C8C159D050CF46EC0AA81BB81189644
:10094000ED91FC9119979A01285F3F4FE217F30749
:100950000CF461C0AA81BB81ED91FC9111978A01D1
:10096000095F1F4F9B01295F3F4F0680F781E02DF4
:10097000CD010995AA81BB81ED91FC91119700846D
:10098000F185E02DCD0109958501085F1F4FF50127
:100990004490FFEFAF1ABF0A98E0692E712C20E84F
:1009A000522EAA81BB81ED91FC911197852D842156
:1009B0000284F385E02D882319F0B401CD0103C032
:1009C000B7018A819B8109955694B1E06B1A710831
:1009D00041F7A016B106D9F6AA81BB81ED91FC9131
:1009E00011970484F585E02DCD010995C60176C0E7
:1009F000B8E0CB9E800111243B01600E711E86156C
:100A000097054CF0040F151FEA81FB812085318585
:100A10002017310714F4019661C0AA81BB81ED91C2
:100A2000FC911197015011090680F781E02D930187
:100A300021503109CD010995AA81BB81ED91FC912D
:100A400011970084F185E02DCD0109952501B8E0CD
:100A50004B0E511CF5012490FFEFAF1ABF0A3C2C3E
:100A600008E010E080E8D82E8D2D82212C2DA1F0F9
:100A7000AA81BB81ED91FC9111970284F385E02D51
:100A8000B401CD01298309952981215089F7D69494
:100A90000150110949F710C0AA81BB81ED91FC9169
:100AA00011970284F385E02DB701CD0129830995C3
:100AB0002981215089F7EBCF3A943110D1CFA4147A
:100AC000B50409F0C7CFAA81BB81ED91FC911197C4
:100AD0000484F585E02DCD010995C3010F900F9099
:100AE0000F90DF91CF911F910F91FF90EF90DF90CA
:100AF000CF90BF90AF909F908F907F906F905F90BE
:100B00004F903F902F9008958EBD00000DB407FECA
:100B1000FDCF8EB50895CF93DF931F92CDB7DEB78B
:100B2000872F5F982B9A2D989CB59F7B9CBD2D9A03
:100B30009CB590649CBD69830E9484052B9A2D9876
:100B40009CB59F7B9CBD2D9A9CB590649CBD698192
:100B5000862F0E9484055F9A0F90DF91CF910895B0
:100B6000CF93DF931F92CDB7DEB7872F2B9A2D98A7
:100B70009CB59F7B9CBD2D9A9CB590649CBD698360
:100B80000E9484052B9A2D989CB59F7B9CBD2D9A25
:100B90009CB590649CBD6981862F0F90DF91CF91A9
:100BA0000C94840585ED8093BC008091BC0084FD8D
:100BB000FCCF1092010208954091AD01262F30E044
:100BC000240F311D21323105DCF420910102243043
:100BD000C9F4FC0180E090E0861758F43091AD0133
:100BE0002191DC01A557BE4FA30FB11D2C93019697
:100BF000F3CF8091AD01680F6093AD0180E008955F
:100C000081E0089582E008950895E0917C0180914B
:100C10007D01E81730F4F0E0E45AFE4F808190E067
:100C200008958FEF9FEF089590917C0180917D0151
:100C3000981750F4E92FF0E0E45AFE4F208130E09D
:100C40009F5F90937C0102C02FEF3FEFC901089591
:100C500080917D0190E020917C01821B9109089593
:100C6000CF92DF92EF92FF920F931F93CF93DF9378
:100C70007C01262F972F8A0180910202882391F010
:100C8000C62FD72F6E01C40ED51ECC15DD0571F011
:100C90006991D701ED91FC910190F081E02DC701A0
:100CA0000995F3CF642F822F0E94DC05C801DF91E4
:100CB000CF911F910F91FF90EF90DF90CF9008950B
:100CC000CF93DF931F92CDB7DEB7698320910202E5
:100CD0002223D1F020912502203240F021E030E0A3
:100CE000FC013383228380E090E015C080910302F1
:100CF000E82FF0E0EC5FFD4F998190838F5F809348
:100D000003028093250205C061E0CE0101960E9496
:100D1000DC0581E090E00F90DF91CF910895CF93B3
:100D2000DF9390E0FC01EF5EFE4F2491FC01EB5D50
:100D3000FE4F8491882361F190E0880F991FFC0198
:100D4000E95FFE4FC591D491FC01E859FF4FA59191
:100D5000B491611109C09FB7F894888120958223CE
:100D60008883EC912E230BC0623061F49FB7F89416
:100D70003881822F809583238883EC912E2B2C93AE
:100D80009FBF06C08FB7F894E8812E2B28838FBFB2
:100D9000DF91CF9108958F929F92AF92BF92CF92A1
:100DA000DF92EF92FF926B017C010E94C4034B0122
:100DB0005C01C114D104E104F104F1F00E94C40308
:100DC000DC01CB0188199909AA09BB09883E934027
:100DD000A105B10570F321E0C21AD108E108F108BC
:100DE00088EE880E83E0981EA11CB11CC114D104AA
:100DF000E104F10419F7DDCFFF90EF90DF90CF9081
:100E0000BF90AF909F908F9008951F920F920FB652
:100E10000F9211242F933F938F939F93AF93BF9380
:100E20008091D3019091D401A091D501B091D601C8
:100E30003091D20123E0230F2D3720F40196A11D1C
:100E4000B11D05C026E8230F0296A11DB11D2093F8
:100E5000D2018093D3019093D401A093D501B09394
:100E6000D6018091D7019091D801A091D901B0917C
:100E7000DA010196A11DB11D8093D7019093D8018D
:100E8000A093D901B093DA01BF91AF919F918F9157
:100E90003F912F910F900FBE0F901F901895862FA6
:100EA0005F982B9A2D989CB59F7B9CBD2D9A9CB5E5
:100EB00090649CBD0E9484055F9A0895862F5F9878
:100EC0002B982D989CB59F7B9CBD2D9A9CB59064CA
:100ED0009CBD0E9484055F9A08956CE20E945E07A3
:100EE0005F980895AF92BF92CF92DF92EF92FF92F8
:100EF0000F931F93CF93DF93EC015B017A0169019C
:100F00006AE20E945E07B501CE010E948B05B60120
:100F1000CE010E948B056BE2CE010E945E07B701F5
:100F2000CE010E948B05B801CE01DF91CF911F91B8
:100F30000F91FF90EF90DF90CF90BF90AF900C9407
:100F40008B050F931F93CF93DF93EC0169307105ED
:100F500019F06A35710571F48AE590E09D838C8300
:100F600080EF90E09F838E8380E491E0998788876B
:100F700018E434C06231710519F0643B710571F4F5
:100F800084EB90E09D838C8380E491E09F838E834B
:100F900080EF90E09987888718E320C06B31710556
:100FA00021F07E7F6E30710571F48EE091E09D83BB
:100FB0008C8380EF90E09F838E8380E491E099871B
:100FC000888718E80BC01D821C8280E491E09F8313
:100FD0008E8380EF90E09987888718EE66E3CE01D4
:100FE0000E945E07612FCE010E944F07E881F981C0
:100FF00008851985015011092E813F812150310941
:101000000680F781E02D40E050E060E070E0CE0126
:101010000995DF91CF911F910F9108958F929F9223
:10102000AF92BF92EF92FF920F931F93CF93DF93F4
:10103000EC017B01E881F9810885198501501109CE
:101040002E813F81215031090680F781E02D40E05B
:1010500050E060E070E00995E881F9810084F18555
:10106000E02DCE010995AE81BF81288539850E948A
:10107000F60F4B015C0183E0B694A7949794879494
:101080008A95D1F7E881F98181149104A104B10412
:1010900009F444C00284F385E02DB701CE0109951F
:1010A000E881F9810284F385E02DB701CE0109952D
:1010B000E881F9810284F385E02DB701CE0109951D
:1010C000E881F9810284F385E02DB701CE0109950D
:1010D000E881F9810284F385E02DB701CE010995FD
:1010E000E881F9810284F385E02DB701CE010995ED
:1010F000E881F9810284F385E02DB701CE010995DD
:10110000E881F9810284F385E02DB701CE010995CC
:1011100081E0881A9108A108B108B4CF0484F5854C
:10112000E02DCE01DF91CF911F910F91FF90EF90B5
:10113000BF90AF909F908F9009941F920F920FB61F
:101140000F9211242F933F934F935F936F937F934D
:101150008F939F93AF93BF93EF93FF938091B900C9
:10116000887F803609F49CC068F5883209F45BC03A
:1011700090F4803109F454C038F4882309F4F6C09F
:10118000883009F44DC0F6C0883109F44CC0803273
:1011900009F45DC0EFC0803409F468C048F48033BE
:1011A00009F455C0883309F0E5C08093FF01D8C029
:1011B000803509F44FC0883509F45DC0883409F0E2
:1011C000D9C0D6C0883909F4C7C0A8F4883709F453
:1011D00067C038F4883609F463C0803709F460C00A
:1011E000C9C0883809F4B8C0803909F45FC08038B4
:1011F00009F0C0C05BC0803B09F486C038F4803A77
:1012000009F466C0883A09F47FC0B4C0803C09F490
:10121000A7C0883C09F4A4C0883B09F48AC0AAC0CE
:101220008091DC0110C09091FE018091FD01981722
:1012300070F5E091FE0181E08E0F8093FE01F0E0F9
:10124000E352FE4F80818093BB0085EC86C0809383
:10125000FF018EC0E091FE0181E08E0F8093FE01C0
:101260008091BB00F0E0E352FE4F80839091FE013D
:101270008091FD016EC0E091FE0181E08E0F8093B0
:10128000FE018091BB00F0E0E352FE4F808380912D
:10129000000281116DC081E08093DB0184EA61C0AE
:1012A00083E0809301021092D101CFCF8091D101D0
:1012B000803208F051C0E091D10181E08E0F80931F
:1012C000D1018091BB00F0E0EF54FE4F8083BDCF91
:1012D00085EC8093BC00109201028091D101803294
:1012E00030F4E091D101F0E0EF54FE4F10826091B4
:1012F000D10170E0E091AF01F091B00181EB91E09C
:1013000009951092D10136C084E0809301021092B9
:10131000AE011092AD01E091AB01F091AC010995E5
:101320008091AD01811105C081E08093AD011092E3
:101330008B01E091AE0181E08E0F8093AE01F0E071
:10134000E557FE4F80818093BB009091AE01809164
:10135000AD01981708F479CF85E88093BC000AC0E6
:1013600085EC8093BC001092010204C01092FF0132
:101370000E94D205FF91EF91BF91AF919F918F9104
:101380007F916F915F914F913F912F910F900FBE81
:101390000F901F9018951F920F920FB60F92112465
:1013A0002F933F934F935F936F937F938F939F936D
:1013B000AF93BF93EF93FF938091890190918A013E
:1013C0008D379105F4F18091000190910101CB9747
:1013D00059F510920101109200018EE391E00E94F4
:1013E000D80A6AE570E08FEC92E00E94A10783E4DE
:1013F00091E00E94D80A2FEF3FEF44E150E060E017
:1014000070E080E090E00E94EB0A89E491E00E94A5
:10141000D80A60E070E08FEC92E00E94A1078EE4B1
:1014200091E00E94D80A09C08091000190910101C9
:101430000196909301018093000110928A0110920D
:1014400089018091890190918A01019690938A0186
:1014500080938901FF91EF91BF91AF919F918F91FF
:101460007F916F915F914F913F912F910F900FBEA0
:101470000F901F901895CF92DF92EF92FF920F93EB
:101480001F93CF93DF936C017A018B01C0E0D0E012
:10149000CE15DF0589F0D8016D918D01D601ED9152
:1014A000FC910190F081E02DC6010995892B11F482
:1014B0007E0102C02196ECCFC701DF91CF911F9131
:1014C0000F91FF90EF90DF90CF9008956115710517
:1014D00079F0FB0101900020E9F73197AF01461B3D
:1014E000570BDC01ED91FC910280F381E02D099412
:1014F00080E090E00895382F2091250290912402F9
:10150000213208F049C0809101028111FCCF42E0F4
:1015100040930102309300023FEF3093FF0110929D
:10152000FE012093FD01A4E0B2E04DED51E0FA018F
:101530003E2F341B321718F43D913193F9CF10929E
:10154000DC012091DC01990F922B9093DC019091AA
:10155000DB01913061F41092DB019091DC019093FA
:10156000BB009091BC0093FDF8CF95EC01C095EEC7
:101570009093BC00909101029230E1F39091FF01B1
:101580009F3F79F08091FF01803241F08091FF010F
:10159000803331F084E005C081E003C082E001C007
:1015A00083E0109203021092250210920202089525
:1015B000CF93DF93BC0186E292E00E94660AEC01C1
:1015C00069E571E086E292E00E94660A8C0F9D1F39
:1015D000DF91CF910895AF92BF92CF92DF92EF92B9
:1015E000FF920F931F936A0159012091D502309108
:1015F000D6028217930714F0C9010197E091D70230
:10160000F091D8026E177F071CF0BF01615071097D
:10161000AC014C0D5D1D421753071CF06901C81A3F
:10162000D90A9B01265F3F4F2E173F0724F07F0109
:10163000E61AF70A03C02AE0E22EF12CE091CF026D
:10164000F091D0028B010E0D1F1D015011099C015C
:101650002C0D3D1D215031090680F781E02DAB0195
:10166000BC018FEC92E00995E091CF02F091D0029D
:101670000084F185E02D8FEC92E009959701D60169
:101680000E94F60F6B017C01E091CF02F091D00235
:10169000C114D104E104F10469F00284F385E02D62
:1016A000B5018FEC92E0099581E0C81AD108E108F4
:1016B000F108EACF0484F585E02D8FEC92E01F91CC
:1016C0000F91FF90EF90DF90CF90BF90AF90099473
:1016D0004F925F926F927F928F929F92AF92BF9242
:1016E000CF92DF92EF92FF920F931F93CF93DF93EE
:1016F000CDB7DEB7A1970FB6F894DEBF0FBECDBF52
:101700008C016B01770FEE08FF08F7FE2FC0DC019C
:10171000ED91FC910190F081E02D6DE209955C0165
:1017200022273327A9012C193D094E095F0919A267
:10173000FE01B1967F019AE0492E512C612C712C4B
:10174000CA01B901A30192010E94D40F605DD701C3
:101750006E937D01211531054105510589F7BD01C4
:10176000C8010E94660AA80EB91E1FC0A7019601F3
:1017700019A2FE01B1967F018AE0882E912CA12C3E
:10178000B12CCA01B901A50194010E94D40F605D7A
:10179000D7016E937D01211531054105510589F76A
:1017A000BD01C8010E94660A5C0169E571E0C801DB
:1017B0000E94660A8A0D9B1DA1960FB6F894DEBFA3
:1017C0000FBECDBFDF91CF911F910F91FF90EF9092
:1017D000DF90CF90BF90AF909F908F907F906F9051
:1017E0005F904F900895789484B5826084BD84B5ED
:1017F000816084BD85B5826085BD85B5816085BD0C
:1018000080916E00816080936E00109281008091C3
:10181000810082608093810080918100816080934B
:101820008100809180008160809380008091B10070
:1018300084608093B1008091B00081608093B0009B
:1018400080917A00846080937A0080917A0082602F
:1018500080937A0080917A00816080937A008091F1
:101860007A00806880937A001092C10087B18C6002
:1018700087B94298439A64E670E080E090E00E9465
:10188000CB0610927C0110927D01109203021092FF
:10189000250210920102C1E0C09300021092DB0108
:1018A00061E082E10E941E0361E083E10E941E0369
:1018B0008091B9008E7F8093B9008091B9008D7FAF
:1018C0008093B90088E48093B80085E48093BC00DD
:1018D000C093020282E580932402109203021092C8
:1018E000250260E483EC92E00E94600660E083ECF5
:1018F00092E00E94600681E00E947B0A61E088E03D
:101900000E948F06289861E089E00E948F0661E0BE
:1019100087E00E948F0661E08DE00E948F0661E003
:101920008BE00E948F0660E08CE00E948F06299871
:101930005F9A61E086E00E948F065E9A10920F0324
:101940008CB5837F8CBD8CB58F7D8CBDCFB7F89463
:1019500080917E01811127C0EFE2F1E08491EBE1FB
:10196000F1E09491E82FF0E0EE0FFF1FE95FFE4FEA
:10197000A591B491EC91E92321F461E08AE00E9401
:101980001E0361E08AE00E948F068CB580618CBDE9
:101990008CB580648CBD61E08DE00E948F0661E0B3
:1019A0008BE00E948F0680917E018F5F80937E0185
:1019B000CFBF8CB58C7F81608CBD8DB581608DBDB6
:1019C0005F9A289862E370E080E090E00E94CB0686
:1019D000289A68E770E080E090E00E94CB06E2E79A
:1019E000F0E08F010F5F1F4F64916F3FB1F1862FC1
:1019F000807C8038B9F0803C49F1803411F0F801E6
:101A0000F0CFC62FCF737F01DC2FFFEFEF1AFF0A55
:101A1000DD23C9F0F70164918FEC92E00E945E072C
:101A2000D150F3CFC62FCF737F01DC2FFFEFEF1A1A
:101A3000FF0ADD2341F0F70164918FEC92E00E94F0
:101A40004F07D150F3CF0C0F111DD9CF6F7370E03A
:101A500080E090E00E94CB06D2CF60E070E08FEC97
:101A600092E00E940E088CB58C7F8CBD8DB58E7F68
:101A70008DBD61E089E00E948F06E2E4F1E0E4912F
:101A8000E33019F150F4E130D1F0E230E1F584B502
:101A9000806284BD8FE788BD3AC0E73011F1E8303D
:101AA00049F1E43081F5809180008062809380006C
:101AB0008FE790E090938B0080938A0028C084B5D4
:101AC000806884BD8FE787BD22C0809180008068D8
:101AD000809380008FE790E0909389008093880046
:101AE00016C08091B00080688093B0008FE780932B
:101AF000B3000DC08091B00080628093B0008FE78A
:101B00008093B40004C060E089E00E941E0361E09D
:101B100089E00E948F0661E089E00E941E03299AF5
:101B20006FEF7FEF8FEC92E00E940E08E09136029B
:101B3000F091370292E09083E0913202F09133020B
:101B40001082E0913402F091350280E1808310929E
:101B50003E02E0913A02F0913B0286E08083E09100
:101B60003802F0913902808180618083E0913802EF
:101B7000F0913902808188608083E0913802F09191
:101B80003902808180688083E0913802F0913902C7
:101B900080818F7D80839093B00087E08093B10037
:101BA0008DE78093B3008091700082608093700015
:101BB0007894C1E0DFEF25E0922E35EE832E45ECE0
:101BC000742E0CE511E057E1652E66EEE62EF12C41
:101BD00076E3C72EDD24D394809101028111FCCFDE
:101BE000C0930102C0930002D093FF011092FE0146
:101BF0009092FD01C093DC018091DC01846A8093A6
:101C0000DC018091DB01813069F41092DB0180916D
:101C1000DC018093BB008091BC0083FDF8CF709203
:101C2000BC0002C08092BC00809101028130E1F3CF
:101C30008091FE01863018F45090FE0102C096E0BB
:101C4000592EADEDB1E0ECE5F1E08E2F801B85154E
:101C500018F48D918193F9CF10927C0150927D01FF
:101C600081E8A82E81E0B82E80917C01581651F0B1
:101C700083EC92E00E9414068625895EF50181932B
:101C80005F01F2CFC093020282E58093240210929A
:101C900003021092250260E083EC92E00E9460064D
:101CA00081E00E947B0A80918601982F91709C2789
:101CB00090938801992369F02091020130910301EA
:101CC0002230310534F02150310930930301209343
:101CD0000201869581708C2780938701882349F0C3
:101CE00080910201909103010196909303018093EA
:101CF00002018091810180938001909182019093F3
:101D00007F01843658F4809106019091070120915B
:101D1000020130910301821B930B0CC0813AE0F069
:101D200020910601309107018091020190910301F9
:101D3000820F931F90930701809306016091120315
:101D4000709113032FEF3FEF4AE050E080911003B2
:101D5000909111030E94EB0A20917F018091040170
:101D600090910501213A38F0209102013091030150
:101D7000820F931F08C02436C0F4209102013091D5
:101D80000301821B930B90930501809304016091E2
:101D90001203709113032FEF3FEF4AE050E0809160
:101DA0001003909111030E94EB0A8091060190911B
:101DB000070197FF04C0109207011092060180915D
:101DC000060190910701873E910524F0F0920701EA
:101DD000E0920601809104019091050197FF04C0F3
:101DE0001092050110920401809104019091050167
:101DF0008733914024F0D0920501C0920401609194
:101E000006017091070120E038EF4AE050E0809130
:101E10000401909105010E94EB0A809106019091C6
:101E20000701909313038093120380910401909112
:101E3000050190931103809310036AE570E08FEC25
:101E400092E00E94A1078091D5029091D6021816C7
:101E500019069CF48091D7029091D80218161906A1
:101E600064F410920A031092090310920E03109268
:101E70000D0310920C0310920B03609100017091FE
:101E800001018FEC92E00E94680B6091000170915B
:101E9000010186E292E00E94680B60E070E08FEC46
:101EA00092E00E94A1070E94140396CEE6E2F2E0BF
:101EB0001382128288EE93E0A0E0B0E084839583E1
:101EC000A683B7832CE031E03183208325EC30E01A
:101ED0003587248724EC30E03787268720EC30E0F4
:101EE000318B208B21EC30E0338B228B22EC30E0E5
:101EF000358B248B26EC30E0378B268B118E128E9F
:101F0000138E148EE3ECF2E01382128284839583A5
:101F1000A683B7838CE191E0918380838091060151
:101F20009091070190931303809312038091040111
:101F3000909105019093110380931003EFECF2E070
:101F4000138212821582148280E491E09783868343
:101F500080EF90E091878087178616861586148615
:101F600013861286178A168A158A148A138A128A89
:101F7000118A108A10AA11AA12AA13AA81E084ABAE
:101F800085AB17AA16AA8FEF9FEF91AF80AF109283
:101F90000E0310920D0315AE14AE13AE12AE8CE20A
:101FA00091E0918380830895A1E21A2EAA1BBB1BA6
:101FB000FD010DC0AA1FBB1FEE1FFF1FA217B30715
:101FC000E407F50720F0A21BB30BE40BF50B661F2B
:101FD000771F881F991F1A9469F7609570958095EF
:101FE00090959B01AC01BD01CF0108950E94101096
:101FF000332312F48A1B9B0B0C9400100E941010C8
:10200000B7FF0895821B930B0895EE0FFF1F0590F5
:10201000F491E02D099481E090E0F8940C941F1065
:10202000A29FB001B39FC001A39F700D811D112419
:10203000911DB29F700D811D1124911D0895F8947A
:02204000FFCFD0
:102042003A0005003200320000000000AB023B0AF9
:10205200740252026602F2020000000060063006BC
:10206200280614060506040600000000EB033B0ADE
:10207200A10772076D07B005E90369045704637984
:102082006B6100626C79617400626C696E006964F4
:0C20920069206E6163687569000D0A002A
:00000001FF
