:100000000C9428020C9450020C9450020C94500250
:100010000C9450020C9450020C9450020C94500218
:100020000C9450020C9450020C9450020C94500208
:100030000C9450020C9450020C9450020C945002F8
:100040000C9405070C9450020C9411060C94EB05CB
:100050000C9450020C9450020C9450020C945002D8
:100060000C949D080C945002000000000000000059
:1000700030787830300030006C6C6C00000000008C
:100080006C6CFE6CFE6C6C00307CC0780CF8300040
:1000900000C6CC183066C600386C3876DCCC7600EA
:1000A0006060C00000000000183060606030180020
:1000B000603018181830600000663CFF3C66000095
:1000C000003030FC30300000000000000070306074
:1000D000000000FC000000000000000000303000C4
:1000E000060C183060C0800078CCDCFCECCC7800CA
:1000F00030F030303030FC0078CC0C3860CCFC0074
:1001000078CC0C380CCC78001C3C6CCCFE0C0C0071
:10011000FCC0F80C0CCC78003860C0F8CCCC78006F
:10012000FCCC0C183060600078CCCC78CCCC78005B
:1001300078CCCC7C0C1870000000303000303000DF
:100140000000303000703060183060C0603018003F
:100150000000FC00FC0000006030180C183060004B
:1001600078CC0C18300030007CC6DEDEDEC07800B3
:100170003078CCCCFCCCCC00FC66667C6666FC009F
:100180003C66C0C0C0663C00FC6C6666666CFC00E9
:10019000FE6268786862FE00FE6268786860F0005F
:1001A0003C66C0C0CE663E00CCCCCCFCCCCCCC00F7
:1001B00078303030303078001E0C0C0CCCCC78000D
:1001C000E6666C786C66E600F06060606266FE0071
:1001D000C6EEFED6C6C6C600C6E6F6DECEC6C6006B
:1001E000386CC6C6C66C3800FC66667C6060F00081
:1001F00078CCCCCCDC781C00FC66667C786CE600A5
:1002000078CCE0381CCC7800FCB43030303078004A
:10021000CCCCCCCCCCCCFC00CCCCCCCCCC78300076
:10022000C6C6C6D6FEEEC600C6C66C386CC6C600CC
:10023000CCCCCC7830307800FECC983062C6FE0052
:100240007860606060607800C06030180C06020062
:10025000781818181818780010386CC600000000BC
:1002600000000000000000FF303018000000000017
:100270000000780C7CCC7600E0607C666666BC0092
:10028000000078CCC0CC78001C0C0C7CCCCC760068
:10029000000078CCFCC07800386C60F06060F00042
:1002A000000076CCCC7C0CF8E0606C766666E600EC
:1002B0003000703030307800180078181818D87076
:1002C000E060666C786CE60070303030303078007A
:1002D0000000ECFED6C6C6000000F8CCCCCCCC00AA
:1002E000000078CCCCCC78000000DC66667C60F046
:1002F000000076CCCC7C0C1E0000D86C6C60F0004A
:1003000000007CC0780CF80010307C3030341800CD
:100310000000CCCCCCCC76000000CCCCCC7830002B
:100320000000C6C6D6FE6C000000C66C386CC60065
:100330000000CCCCCC7C0CF80000FC983064FC00B5
:100340001C3030E030301C00181818001818180045
:10035000E030301C3030E00076DC000000000000AF
:1003600010386CC6C6C6FE0000000000250028003C
:100370002B004128D441CF8300833041ED846403B6
:10038000128141E88385017941CB85392C00340203
:1003900041F7812041EA82000041C0812641C181AC
:1003A0001141C582353E41C781BE41B182001B412A
:1003B000F281084126810141E08F1F1A180A0F06B9
:1003C0004587320A070207050041E18F002527050E
:1003D00010093A784D05180D383A1F41B6840A8243
:1003E000270041B78107413A8155413681E8412ACA
:1003F00082000082013F412B8200008200EF411108
:10040000FCFC4129D4FFFF00000000240027002A43
:10041000000102040810204080010204081020019D
:100420000204081020040404040404040402020268
:100430000202020303030303030000000800020199
:100440000000030407000000000000000000281066
:1004500011241FBECFEFD8E0DEBFCDBF12E0A0E079
:10046000B1E0E6EEF1E202C005900D92A033B107D3
:10047000D9F723E0A0E3B2E001C01D92AF3EB2077E
:10048000E1F712E0C8E2D2E004C02197FE010E9429
:10049000D710C732D107C9F70E94190C0C94F1107C
:1004A0000C940000FC01918D828D981761F0828D73
:1004B000DF01A80FB11D5D968C91928D9F5F9F7398
:1004C000928F90E008958FEF9FEF0895FC01918D3A
:1004D000828D981731F0828DE80FF11D858D90E0A7
:1004E00008958FEF9FEF0895FC01918D228D892F44
:1004F00090E0805C9F4F821B91098F73992708952C
:100500008DEF92E00E94740221E0892B09F420E033
:10051000822F0895FC01848DDF01A80FB11DA35A1D
:10052000BF4F2C91848D90E001968F739927848F13
:10053000A689B7892C93A089B1898C9180648C930A
:10054000938D848D981306C00288F389E02D8081F5
:100550008F7D80830895EF92FF920F931F93CF9327
:10056000DF93EC0181E0888F9B8D8C8D981305C003
:10057000E889F989808185FD24C0F62E0B8D10E075
:100580000F5F1F4F0F731127E02E8C8DE8120CC0E8
:100590000FB607FCFACFE889F989808185FFF5CF8E
:1005A000CE010E948A02F1CF8B8DFE01E80FF11D72
:1005B000E35AFF4FF0820B8FEA89FB8980818062CA
:1005C00007C0EE89FF896083E889F98980818064AA
:1005D000808381E090E0DF91CF911F910F91FF9098
:1005E000EF900895CF93DF93EC01888D8823C9F0B5
:1005F000EA89FB89808185FD05C0A889B9898C912C
:1006000086FD0FC00FB607FCF5CF808185FFF2CFC6
:10061000A889B9898C9185FFEDCFCE010E948A020D
:10062000E7CFDF91CF91089580E090E0892B29F00A
:100630000E94800281110C94000008953FB7F89445
:1006400080917C0290917D02A0917E02B0917F0208
:1006500026B5A89B05C02F3F19F00196A11DB11D1D
:100660003FBFBA2FA92F982F8827820F911DA11D58
:10067000B11DBC01CD0142E0660F771F881F991F95
:100680004A95D1F708955F9A0895CF92EF92FF921D
:100690000F931F93CF93DF93EC01262F6A3081F4E1
:1006A0008EAD9FAD9BAF8AAF2CA92F778CAD9DAD42
:1006B00038E0239F800D911D11249DAF8CAF47C062
:1006C000862F8B7F893009F442C06AAD7BAD203222
:1006D00019F461157105D9F1E881F981E8ACF9AC3B
:1006E0000EA91FA94CAD5DAD0088F189E02DCCA805
:1006F000CE010995BC019BAF8AAF8DA9882339F142
:100700002CA92F77822F90E048EF4203900111240B
:100710004E815F81420F531F46175707C4F44EADF9
:100720005FAD5BAF4AAF43E0880F991F4A95E1F791
:100730004CAD5DAD840F951F9DAF8CAF488559853D
:10074000240F351F2817390714F41DAE1CAE81E0A5
:1007500090E0DF91CF911F910F91FF90EF90CF909C
:100760000895CF92EF92FF920F931F93DC01ED91CA
:10077000FC910684F785E02D09951F910F91FF905C
:10078000EF90CF9008952F923F924F925F926F9289
:100790007F928F929F92AF92BF92CF92DF92EF9211
:1007A000FF920F931F93CF93DF9300D01F92CDB78B
:1007B000DEB79B838A83480188E0280290011124D8
:1007C000D901A859B0405D01BC2DBF77CB2EEA817D
:1007D000FB8186819781F1E0FB1708F463C06B0110
:1007E00028E0C20ED11C8C159D050CF46EC0AA81A8
:1007F000BB811896ED91FC9119979A01285F3F4FA4
:10080000E217F3070CF461C0AA81BB81ED91FC9162
:1008100011978A01095F1F4F9B01295F3F4F068097
:10082000F781E02DCD010995AA81BB81ED91FC9165
:1008300011970084F185E02DCD0109958501085FB0
:100840001F4FF5014490FFEFAF1ABF0A98E0692EE1
:10085000712C20E8522EAA81BB81ED91FC91119759
:10086000852D84210284F385E02D882319F0B401BD
:10087000CD0103C0B7018A819B8109955694B1E0EF
:100880006B1A710841F7A016B106D9F6AA81BB818F
:10089000ED91FC9111970484F585E02DCD0109952A
:1008A000C60176C0B8E0CB9E800111243B01600EEA
:1008B000711E861597054CF0040F151FEA81FB8108
:1008C000208531852017310714F4019661C0AA8173
:1008D000BB81ED91FC911197015011090680F781C0
:1008E000E02D930121503109CD010995AA81BB81E9
:1008F000ED91FC9111970084F185E02DCD010995D2
:100900002501B8E04B0E511CF5012490FFEFAF1A02
:10091000BF0A3C2C08E010E080E8D82E8D2D822103
:100920002C2DA1F0AA81BB81ED91FC91119702843D
:10093000F385E02DB401CD0129830995298121504A
:1009400089F7D6940150110949F710C0AA81BB81DB
:10095000ED91FC9111970284F385E02DB701CD0153
:10096000298309952981215089F7EBCF3A943110D9
:10097000D1CFA414B50409F0C7CFAA81BB81ED91F2
:10098000FC9111970484F585E02DCD010995C301F3
:100990000F900F900F90DF91CF911F910F91FF90CB
:1009A000EF90DF90CF90BF90AF909F908F907F900F
:1009B0006F905F904F903F902F9008958EBD0000F4
:1009C0000DB407FEFDCF8EB50895CF93DF931F9230
:1009D000CDB7DEB7872F5F982B9A2D989CB59F7B5C
:1009E0009CBD2D9A9CB590649CBD69830E94DE04D9
:1009F0002B9A2D989CB59F7B9CBD2D9A9CB590649D
:100A00009CBD6981862F0E94DE045F9A0F90DF9162
:100A1000CF910895CF93DF931F92CDB7DEB7872F85
:100A20002B9A2D989CB59F7B9CBD2D9A9CB590646C
:100A30009CBD69830E94DE042B9A2D989CB59F7BF8
:100A40009CBD2D9A9CB590649CBD6981862F0F90AA
:100A5000DF91CF910C94DE0485ED8093BC008091F2
:100A6000BC0084FDFCCF1092D80208954091520240
:100A7000262F30E0240F311D21323105DCF4209186
:100A8000D8022430C9F4FC0180E090E0861758F4C5
:100A9000309152022191DC01A05DBD4FA30FB11D29
:100AA0002C930196F3CF80915202680F609352020B
:100AB00080E0089581E0089582E008950895E0912E
:100AC000A0028091A102E81730F4F0E0E058FD4F59
:100AD000808190E008958FEF9FEF08959091A0029C
:100AE0008091A102981750F4E92FF0E0E058FD4FF3
:100AF000208130E09F5F9093A00202C02FEF3FEF74
:100B0000C90108958091A10290E02091A002821B6A
:100B100091090895CF92DF92EF92FF920F931F9366
:100B2000CF93DF937C01262F972F8A018091D902E2
:100B3000882391F0C62FD72F6E01C40ED51ECC1579
:100B4000DD0571F06991D701ED91FC910190F08183
:100B5000E02DC7010995F3CF642F822F0E9436053F
:100B6000C801DF91CF911F910F91FF90EF90DF901F
:100B7000CF900895CF93DF931F92CDB7DEB76983EF
:100B80002091D9022223D1F02091FC02203240F0A2
:100B900021E030E0FC013383228380E090E015C047
:100BA0008091DA02E82FF0E0E552FD4F99819083C1
:100BB0008F5F8093DA028093FC0205C061E0CE0172
:100BC00001960E94360581E090E00F90DF91CF9171
:100BD00008950E94DD101F920F920FB60F921124FC
:100BE0002F933F934F935F936F937F938F939F9335
:100BF000AF93BF93EF93FF938DEF92E00E948A0231
:100C0000FF91EF91BF91AF919F918F917F916F91E4
:100C10005F914F913F912F910F900FBE0F901F90BA
:100C200018951F920F920FB60F9211242F938F9346
:100C30009F93EF93FF93E0910D03F0910E0380815A
:100C4000E0911303F091140382FD12C09081809112
:100C500016038F5F8F7320911703821751F0E09175
:100C60001603F0E0E350FD4F958F8093160301C00B
:100C70008081FF91EF919F918F912F910F900FBEE7
:100C80000F901F90189590E0FC01E75CFB4F3491AA
:100C9000FC01EF5EFB4F2491FC01EB5DFB4FE49107
:100CA000EE2309F43BC0332339F1333091F038F4AB
:100CB0003130A9F0323001F584B58F7D12C0373064
:100CC00091F03830A1F03430B9F4809180008F7DFC
:100CD00003C0809180008F77809380000DC084B521
:100CE0008F7784BD09C08091B0008F7703C0809159
:100CF000B0008F7D8093B000F0E0EE0FFF1FE85949
:100D0000FC4FA591B4918FB7F894EC91611103C099
:100D100020952E2301C02E2B2C938FBF0895CF93A7
:100D2000DF9390E0FC01EF5EFB4F2491FC01EB5D53
:100D3000FB4F8491882361F190E0880F991FFC019B
:100D4000E95FFB4FC591D491FC01E859FC4FA59197
:100D5000B491611109C09FB7F894888120958223CE
:100D60008883EC912E230BC0623061F49FB7F89416
:100D70003881822F809583238883EC912E2B2C93AE
:100D80009FBF06C08FB7F894E8812E2B28838FBFB2
:100D9000DF91CF9108958F929F92AF92BF92CF92A1
:100DA000DF92EF92FF926B017C010E941E034B01C8
:100DB0005C01C114D104E104F104F1F00E941E03AE
:100DC000DC01CB0188199909AA09BB09883E934027
:100DD000A105B10570F321E0C21AD108E108F108BC
:100DE00088EE880E83E0981EA11CB11CC114D104AA
:100DF000E104F10419F7DDCFFF90EF90DF90CF9081
:100E0000BF90AF909F908F9008951F920F920FB652
:100E10000F9211242F933F938F939F93AF93BF9380
:100E20008091780290917902A0917A02B0917B0230
:100E30003091770223E0230F2D3720F40196A11D76
:100E4000B11D05C026E8230F0296A11DB11D2093F8
:100E500077028093780290937902A0937A02B093FC
:100E60007B0280917C0290917D02A0917E02B091E4
:100E70007F020196A11DB11D80937C0290937D029B
:100E8000A0937E02B0937F02BF91AF919F918F910B
:100E90003F912F910F900FBE0F901F901895862FA6
:100EA0005F982B9A2D989CB59F7B9CBD2D9A9CB5E5
:100EB00090649CBD0E94DE045F9A0895862F5F981F
:100EC0002B982D989CB59F7B9CBD2D9A9CB59064CA
:100ED0009CBD0E94DE045F9A08956CE20E945E074A
:100EE0005F980895AF92BF92CF92DF92EF92FF92F8
:100EF0000F931F93CF93DF93EC015B017A0169019C
:100F00006AE20E945E07B501CE010E94E504B601C7
:100F1000CE010E94E5046BE2CE010E945E07B7019C
:100F2000CE010E94E504B801CE01DF91CF911F915F
:100F30000F91FF90EF90DF90CF90BF90AF900C9407
:100F4000E5040F931F93CF93DF93EC016930710594
:100F500019F06A35710571F48AE590E09D838C8300
:100F600080EF90E09F838E8380E491E0998788876B
:100F700018E434C06231710519F0643B710571F4F5
:100F800084EB90E09D838C8380E491E09F838E834B
:100F900080EF90E09987888718E320C06B31710556
:100FA00021F07E7F6E30710571F48EE091E09D83BB
:100FB0008C8380EF90E09F838E8380E491E099871B
:100FC000888718E80BC01D821C8280E491E09F8313
:100FD0008E8380EF90E09987888718EE66E3CE01D4
:100FE0000E945E07612FCE010E944F07E881F981C0
:100FF00008851985015011092E813F812150310941
:101000000680F781E02D40E050E060E070E0CE0126
:101010000995DF91CF911F910F9108958F929F9223
:10102000AF92BF92EF92FF920F931F93CF93DF93F4
:10103000EC017B01E881F9810885198501501109CE
:101040002E813F81215031090680F781E02D40E05B
:1010500050E060E070E00995E881F9810084F18555
:10106000E02DCE010995AE81BF81288539850E948A
:10107000C8104B015C0183E0B694A79497948794C1
:101080008A95D1F7E881F98181149104A104B10412
:1010900009F444C00284F385E02DB701CE0109951F
:1010A000E881F9810284F385E02DB701CE0109952D
:1010B000E881F9810284F385E02DB701CE0109951D
:1010C000E881F9810284F385E02DB701CE0109950D
:1010D000E881F9810284F385E02DB701CE010995FD
:1010E000E881F9810284F385E02DB701CE010995ED
:1010F000E881F9810284F385E02DB701CE010995DD
:10110000E881F9810284F385E02DB701CE010995CC
:1011100081E0881A9108A108B108B4CF0484F5854C
:10112000E02DCE01DF91CF911F910F91FF90EF90B5
:10113000BF90AF909F908F9009941F920F920FB61F
:101140000F9211242F933F934F935F936F937F934D
:101150008F939F93AF93BF93EF93FF938091B900C9
:10116000887F803609F49CC068F5883209F45BC03A
:1011700090F4803109F454C038F4882309F4F6C09F
:10118000883009F44DC0F6C0883109F44CC0803273
:1011900009F45DC0EFC0803409F468C048F48033BE
:1011A00009F455C0883309F0E5C08093D602D8C051
:1011B000803509F44FC0883509F45DC0883409F0E2
:1011C000D9C0D6C0883909F4C7C0A8F4883709F453
:1011D00067C038F4883609F463C0803709F460C00A
:1011E000C9C0883809F4B8C0803909F45FC08038B4
:1011F00009F0C0C05BC0803B09F486C038F4803A77
:1012000009F466C0883A09F47FC0B4C0803C09F490
:10121000A7C0883C09F4A4C0883B09F48AC0AAC0CE
:101220008091B30210C09091D5028091D40298179A
:1012300070F5E091D50281E08E0F8093D502F0E049
:10124000EC54FD4F80818093BB0085EC86C0809379
:10125000D6028EC0E091D50281E08E0F8093D50238
:101260008091BB00F0E0EC54FD4F80839091D5025B
:101270008091D4026EC0E091D50281E08E0F809300
:10128000D5028091BB00F0E0EC54FD4F808380914B
:10129000D70281116DC081E08093B20284EA61C0FF
:1012A00083E08093D80210927602CFCF80917602AD
:1012B000803208F051C0E091760281E08E0F809379
:1012C00076028091BB00F0E0EA5AFD4F8083BDCFEB
:1012D00085EC8093BC001092D80280917602803217
:1012E00030F4E0917602F0E0EA5AFD4F108260910E
:1012F000760270E0E0915402F091550286E592E0AA
:1013000009951092760236C084E08093D80210923C
:10131000530210925202E0915002F091510209954D
:1013200080915202811105C081E080935202109297
:101330003002E091530281E08E0F80935302F0E07F
:10134000E05DFD4F80818093BB00909153028091BE
:101350005202981708F479CF85E88093BC000AC040
:1013600085EC8093BC001092D80204C01092D60283
:101370000E942C05FF91EF91BF91AF919F918F91AA
:101380007F916F915F914F913F912F910F900FBE81
:101390000F901F9018950F931F938091A202909128
:1013A000A302039774F584E090E090931901809371
:1013B00018012091A8033091A90395E1929FB001F3
:1013C000939F700D11246B5F7F4F2091A603309186
:1013D000A703929FF001939FF00D112400E41EECEF
:1013E00025E130E045E150E0CF0104960E94730A08
:1013F0008091A2029091A30201969093A302809300
:10140000A2021F910F9108950F931F93E6EAF3E054
:101410002281338195E1929FB001939F700D112439
:101420006B5F7F4F20813181929FF001939FF00D80
:1014300011240FEF1FEF25E130E045E150E0CF012F
:1014400004960E94730A1F910F9108950F931F93A2
:10145000E6EAF3E02281338195E1929FB001939F08
:10146000700D11246B5F7F4F20813181929FF001BD
:10147000939FF00D112400E010E025E130E045E1FC
:1014800050E0CF0104960E94730A1F910F910895B6
:10149000CF92DF92EF92FF920F931F93CF93DF9340
:1014A0006C017A018B01C0E0D0E0CE15DF0589F038
:1014B000D8016D918D01D601ED91FC910190F081E3
:1014C000E02DC6010995892B11F47E0102C02196F9
:1014D000ECCFC701DF91CF911F910F91FF90EF905B
:1014E000DF90CF9008958F929F92AF92BF92CF924C
:1014F000DF92EF92FF920F931F93CF93DF93EA0156
:10150000790168014091B4035091B50384179507A0
:1015100014F0CA0101972091B6033091B703621706
:1015200073071CF0B90161507109FC01EC0FFD1F3C
:10153000E417F5071CF0EA01C81BD90BAB014E0DEF
:101540005F1D421753071CF07901E61AF70AE09174
:10155000AE03F091AF038B010E0D1F1D0150110959
:101560009C012C0F3D1F215031090680F781E02D91
:10157000AB01BC018EEA93E00995E091AE03F091D6
:10158000AF030084F185E02D8EEA93E00995970181
:10159000DE010E94C8104B015C01E091AE03F091A6
:1015A000AF0381149104A104B10469F00284F385AE
:1015B000E02DB6018EEA93E0099581E0881A910842
:1015C000A108B108EACF0484F585E02D8EEA93E006
:1015D000DF91CF911F910F91FF90EF90DF90CF900F
:1015E000BF90AF909F908F900994CF92DF92EF922F
:1015F000FF920F931F93CF93DF93EC017B018A013E
:1016000025E130E041E050E00E94730AB7016C5ED2
:101610007F4F21E030E045E150E0CE010E94730AA7
:1016200025E130E041E050E0B701CE0144960E9450
:10163000730A21E030E045E150E0B701CE010E949D
:10164000730ADF91CF911F910F91FF90EF90DF9080
:10165000CF900895382F2091FC029091FB02213207
:1016600008F049C08091D8028111FCCF42E040933C
:10167000D8023093D7023FEF3093D6021092D502B2
:101680002093D402ABEDB2E044EB52E0FA013E2FDE
:10169000341B321718F43D913193F9CF1092B302F5
:1016A0002091B302990F922B9093B3029091B202C2
:1016B000913061F41092B2029091B3029093BB000A
:1016C0009091BC0093FDF8CF95EC01C095EE9093FE
:1016D000BC009091D8029230E1F39091D6029F3FE6
:1016E00079F08091D602803241F08091D602803329
:1016F00031F084E005C081E003C082E001C083E0F6
:101700001092DA021092FC021092D902089500970A
:1017100069F0FC0101900020E9F73197AF01481B07
:10172000590BBC018DEF92E00C94480A80E090E0E8
:1017300008958F929F92AF92BF920F931F93CF9372
:10174000DF93CDB7DEB7A1970FB6F894DEBF0FBE1B
:10175000CDBF19A2423008F44AE08E010F5D1F4F41
:10176000842E912CA12CB12CA50194010E94A610CD
:10177000E62FB901CA0101501109EA3014F4E05D05
:1017800001C0E95CD801EC93232B242B252B61F7B6
:10179000C8010E94870BA1960FB6F894DEBF0FBE5A
:1017A000CDBFDF91CF911F910F91BF90AF909F90D0
:1017B0008F900895CF92DF92EF92FF92CF93DF93B5
:1017C0006B017C01E091FD02F091FE020190F0813D
:1017D000E02D6DE28DEF92E00995EC016627772709
:1017E000CB016C197D098E099F094AE00E94990B73
:1017F0008C0F9D1FDF91CF91FF90EF90DF90CF90E6
:101800000895CF93DF93BC01990F880B990B97FF35
:1018100003C00E94DA0B03C04AE00E94990BEC015E
:1018200088E292E00E94870B8C0F9D1FDF91CF9181
:101830000895789484B5826084BD84B5816084BD48
:1018400085B5826085BD85B5816085BD80916E005E
:10185000816080936E00109281008091810082608F
:1018600080938100809181008160809381008091CC
:1018700080008160809380008091B10084608093BB
:10188000B1008091B00081608093B00080917A00B7
:10189000846080937A0080917A00826080937A00DD
:1018A00080917A00816080937A0080917A008068CC
:1018B00080937A001092C10087B18C6087B94298FA
:1018C000439A64E670E080E090E00E94CB061092BC
:1018D000A0021092A1021092DA021092FC02109261
:1018E000D802C1E0C093D7021092B20261E082E157
:1018F0000E94430661E083E10E9443068091B900A3
:101900008E7F8093B9008091B9008D7F8093B9005C
:1019100088E48093B80085E48093BC00C093D9022A
:1019200082E58093FB021092DA021092FC0260E4DE
:101930008AE993E00E94BA0560E08AE993E00E9498
:10194000BA0581E00E942A0B61E088E00E948F06C0
:10195000289861E089E00E948F0661E087E00E949C
:101960008F0661E08DE00E948F0661E08BE00E94AF
:101970008F0660E08CE00E948F0629985F9A61E0F4
:1019800086E00E948F065E9A1092EE038CB5837FEC
:101990008CBD8CB58F7D8CBDCFB7F8948091A4029F
:1019A000811127C0EFE2F4E08491EBE1F4E094913F
:1019B000E82FF0E0EE0FFF1FE95FFB4FA591B49118
:1019C000EC91E92321F461E08AE00E94430661E0A2
:1019D0008AE00E948F068CB580618CBD8CB58064D6
:1019E0008CBD61E08DE00E948F0661E08BE00E947B
:1019F0008F068091A4028F5F8093A402CFBF8CB525
:101A00008C7F81608CBD8DB581608DBD5F9A28987B
:101A100062E370E080E090E00E94CB06289A68E7DD
:101A200070E080E090E00E94CB06E2E7F3E08F01F7
:101A30000F5F1F4F64916F3FB1F1862F807C80381C
:101A4000B9F0803C49F1803411F0F801F0CFC62F95
:101A5000CF737F01DC2FFFEFEF1AFF0ADD23C9F000
:101A6000F70164918EEA93E00E945E07D150F3CFB4
:101A7000C62FCF737F01DC2FFFEFEF1AFF0ADD23A4
:101A800041F0F70164918EEA93E00E944F07D15034
:101A9000F3CF0C0F111DD9CF6F7370E080E090E091
:101AA0000E94CB06D2CF60E070E08EEA93E00E9405
:101AB0000E088CB58C7F8CBD8DB58E7F8DBD61E0A1
:101AC00089E00E948F06E2E4F4E0E491E33019F14A
:101AD00050F4E130D1F0E230E1F584B5806284BDAC
:101AE0008FE788BD3AC0E73011F1E83049F1E430C2
:101AF00081F5809180008062809380008FE790E084
:101B000090938B0080938A0028C084B5806884BD40
:101B10008FE787BD22C0809180008068809380001D
:101B20008FE790E0909389008093880016C08091A1
:101B3000B00080688093B0008FE78093B3000DC041
:101B40008091B00080628093B0008FE78093B400F2
:101B500004C060E089E00E94430661E089E00E94E1
:101B60008F0661E089E00E944306299A6FEF7FEFBC
:101B70008EEA93E00E940E08E0910D03F0910E03AF
:101B800082E08083E0910903F0910A031082E091E2
:101B90000B03F0910C038FEC808310921503E091FE
:101BA0001103F091120386E08083E0910F03F0911E
:101BB0001003808180618083E0910F03F091100316
:101BC000808188608083E0910F03F0911003808111
:101BD00080688083E0910F03F091100380818F7DF6
:101BE000808300E010E027EE30E04CE450E065E058
:101BF00070E080EF90E00E94730AA0E0AA2EA1E0BE
:101C0000BA2EC4E0D0E0C12CD12CF5E0EF2EF12C9F
:101C1000F501EC0DFD1D808191818130910569F404
:101C200000E61AE925E130E045E150E0B701CE01D8
:101C30000E94730A40E851E60FC08230910589F492
:101C400000E018EF25E130E045E150E0B701CE01BA
:101C50000E94730A40E050E0B701CE010E94F50AED
:101C60000AC08430910519F40E94CB0904C003977F
:101C700011F40E94260A85E1E80EF11CE6E1CE0E81
:101C8000D11CF2EFCF16D10419F6659682E0A80EAA
:101C9000B11CCB3ED10509F0B6CF81E090E0909326
:101CA000A7038093A6039093A9038093A80382E0DF
:101CB00090E09093AB038093AA0383E090E090932D
:101CC000AD038093AC0311E00FEFD5E045EED42EC9
:101CD00055ECC52E60E8E62E62E0F62E77E1B72ED1
:101CE000E2E5AE2ECBE08091D8028111FCCF1093BB
:101CF000D8021093D7020093D6021092D502D09347
:101D0000D4021093B3028091B302846A8093B30229
:101D10008091B202813069F41092B2028091B302D4
:101D20008093BB008091BC0083FDF8CFC092BC00C3
:101D300002C0D092BC008091D8028130E1F3809142
:101D4000D502863018F47090D50202C036E0732EAA
:101D5000A4EBB2E0E0E8F2E08E2F8E19871518F4BC
:101D60008D918193F9CF1092A0027092A1022BEA7B
:101D7000822E22E0922E8091A002781651F08AE9FC
:101D800093E00E946E058B25895EF40181934F01DB
:101D9000F2CF1093D902A092FB021092DA021092B5
:101DA000FC0260E08AE993E00E94BA0581E00E94AB
:101DB0002A0B8091B002817081278093B1026091DB
:101DC000AB026093AA028091AC028093A90270E0FA
:101DD00080E090E04AE00E94990B8DE292E00E9440
:101DE000870B6091A90270E080E090E04AE00E94D9
:101DF000990B88E292E00E94870B8091AA028F3FA4
:101E000029F48091A9028F3F09F46DCF8091B1022E
:101E1000813049F58091A8039091A903C89FF001F2
:101E2000C99FF00D11248091A6039091A703E80F9C
:101E3000F91FEE0FFF1FE050FF4F80819181049743
:101E400091F00E94CB098091A6039091A7039093F3
:101E5000A8028093A7028091A8039091A903909370
:101E6000A6028093A5028091AA02843608F4CBC012
:101E7000813A08F442C02091A8033091A9038091CF
:101E8000A6039091A703C29FF001C39FF00D1124F8
:101E9000E80FF91FDF01AA0FBB1FAE5FBE4F8D9188
:101EA0009C91892B09F0AFC0EE0FFF1FE050FF4F50
:101EB00080819181049721F0118210820E94040A8E
:101EC0008091A6039091A70301962091A8033091D9
:101ED000A903C29FF001C39FF00D1124E80FF91F61
:101EE000EE0FFF1FE050FF4F23E030E031832083EF
:101EF0009093A7038093A60384C08091A902813A9E
:101F0000A0F18091A8039091A903E091A603F0911C
:101F1000A7039C0121503109C29FD001C39FB00D7E
:101F20001124AE0FBF1FAA0FBB1FA050BF4F2D9192
:101F30003C91232B09F067C0C89F9001C99F300DC9
:101F40001124E20FF31FEE0FFF1FE050FF4F8081BF
:101F50009181049721F0118210820E94040A8091DD
:101F6000A8039091A903019735C0843608F04BC0AF
:101F70008091A8039091A903E091A603F091A70393
:101F80009C012F5F3F4FC29FD001C39FB00D112412
:101F9000AE0FBF1FAA0FBB1FA050BF4F2D913C918A
:101FA000232B89F5C89F9001C99F300D1124E20FA2
:101FB000F31FEE0FFF1FE050FF4F808191810497C8
:101FC00021F0118210820E94040A8091A80390914E
:101FD000A9030196C89FF001C99FF00D112420911B
:101FE000A6033091A703E20FF31FEE0FFF1FE0508F
:101FF000FF4F23E030E0318320839093A903809347
:10200000A8030E94260A6091A7027091A802072ED9
:10201000000C880B990B97FF03C00E94DA0B03C0DA
:102020004AE00E94990B8BE292E00E94870B80911C
:10203000A5029091A6020E94010C8091A2029091AB
:10204000A3020E94010C83E090E00E94010C4BCEA1
:10205000EDEFF2E01382128288EE93E0A0E0B0E0B0
:1020600084839583A683B78326EF31E03183208371
:1020700025EC30E03587248724EC30E0378726874D
:1020800020EC30E0318B208B21EC30E0338B228B45
:1020900022EC30E0358B248B26EC30E0378B268B1E
:1020A000118E128E138E148EEAE9F3E013821282DF
:1020B00084839583A683B78386E092E091838083AF
:1020C000EEEAF3E0138212821582148280E491E03A
:1020D0009783868380EF90E09187808717861686A6
:1020E0001586148613861286178A168A158A148A0C
:1020F000138A128A118A108A10AA11AA12AA13AA84
:1021000081E084AB85AB17AA16AA8FEF9FEF91AF42
:1021100080AF1092ED031092EC0315AE14AE13AE27
:1021200012AE86E192E091838083E6EAF3E081E0FB
:1021300090E0918380839383828382E090E0958313
:10214000848383E090E0978386830895A1E21A2E2A
:10215000AA1BBB1BFD010DC0AA1FBB1FEE1FFF1F4B
:10216000A217B307E407F50720F0A21BB30BE40B9B
:10217000F50B661F771F881F991F1A9469F76095E2
:102180007095809590959B01AC01BD01CF0108959C
:102190000E94E210332312F48A1B9B0B0C94D21082
:1021A0000E94E210B7FF0895821B930B0895EE0F73
:1021B000FF1F0590F491E02D099481E090E0F894E0
:1021C0000C94F110A29FB001B39FC001A39F700DAA
:1021D000811D1124911DB29F700D811D1124911D2F
:0621E0000895F894FFCF02
:1021E60001000100010001000100010001000100E1
:1021F60001000100010001000300000000000000D2
:1022060000000000000000000000010001000000C6
:1022160001000000010000000100000001000000B4
:1022260001000100000000000000000000000000A6
:102236000000000000000100010000000100000095
:102246000100000001000000010000000100010083
:102256000000000000000000000000000000000078
:102266000000010001000000010000000100000064
:102276000100000001000000010001000000000054
:102286000000000000000000000000000000010047
:102296000100000001000000010000000100000034
:1022A6000100000001000100000000000000000025
:1022B6000000000000000000000001000100010015
:1022C6000100010001000100010001000100010000
:1022D600010000000000AB02480A740252026602C6
:1022E600F20200000000BA058A0582056E055F0548
:1022F6005E05000000004503480AA10772076D0746
:102306000A054303C303B1030D0A00202020200061
:00000001FF
